:020000040800F2
:10000000086D0020F10100088D5B00081502000852
:10001000055B0008AD0A00085D78000800000000DC
:100020000000000000000000000000005161000816
:10003000E915000800000000315E00086163000857
:100040000B0200080B0200080B0200080B0200085C
:100050000B0200080B0200080B0200080B0200084C
:100060000B0200080B0200080B020008C91200086E
:10007000D51200080B0200080B0200080B02000852
:100080000B020008000000000B0200080B02000831
:100090000B020008911600080B0200080B02000872
:1000A0000B0200080B0200080B0200080B020008FC
:1000B0000B0200080B0200080B0200080B020008EC
:1000C0000B0200080B0200080B0200080B020008DC
:1000D0000B020008157700080B0200080B0200084D
:1000E0000B0200080B0200080B0200080B020008BC
:1000F0000B0200080B0200080B02000800000000C1
:10010000000000000B020008000000000B020008C5
:100110000B020008000000000B0200080D6400083C
:100120000B020008E11200080B0200080B02000895
:100130000B02000800000000000000000B02000895
:100140000B0200080B020008000000000000000085
:10015000000000000000000000000000000000009F
:100160000000000000000000000000000B0200087A
:100170000B0200080000000000000000000000006A
:10018000000000000B02000800000000000000005A
:10019000000000000000000000000000000000005F
:1001A00000000000000000000B0200080B02000825
:1001B0000B0200080B0200080B0200080000000000
:1001C000000000000B02000800000000000000001A
:1001D0000B0200080B020008DFF810D000F0E2FA72
:1001E00000F074F800480047B9B10008086D00201D
:1001F0000648804706480047FEE7FEE7FEE7FEE7C1
:10020000FEE7FEE7FEE7FEE7FEE7FEE7FD63000828
:10021000D90100087046694607F0A6FFFFF7FEFF08
:100220002DE9F05F0546002092469B46884606462B
:10023000814640241BE0284641464746224600F0BE
:1002400002FA53465A46C01A914110D31146184635
:10025000224600F0E9F92D1A67EB01084F462246C5
:100260000120002100F0E0F917EB00094E41201EAB
:10027000A4F10104DFDC484631462A464346BDE886
:10028000F09F40EA01039B0703D009E008C9121F51
:1002900008C0042AFAD203E011F8013B00F8013B40
:1002A000521EF9D27047D2B201E000F8012B491E6C
:1002B000FBD270470022F6E710B513460A46044603
:1002C0001946FFF7F0FF204610BD000070B5054C41
:1002D000054D03E0206820448047241DAC42F9D13D
:1002E00070BD0000280501082C0501082DE9FE4F0E
:1002F000804681EA0300C00F0C46009021F00041C7
:1003000023F00045B8EB0200A94105D24046214642
:1003100090461C460B46024623F00040104347D04F
:10032000270DC7F30A00C3F30A510290401A019047
:1003300040286BDAC3F3130040F4801B0098924608
:1003400020B10023D2EB030A63EB0B0B0198594653
:10035000C0F14002504600F067F906460D4650468F
:100360005946019A00F07FF910EB08006141002422
:1003700087EA115284EAE7731A4340D0009A62B3C5
:10038000019A012A4FEA075215DC001B61EB0201BA
:100390004FF0004202EA0752CDE90042001C41F54D
:1003A000801132462B4600F07FF903B0BDE8F08F94
:1003B00040462146F9E7001B61EB0201001C41F5B4
:1003C000801300185B412018A2F5001747EB0301CA
:1003D00040EAD570B6196D4111E06D084FEA360656
:1003E00045EAC0754FEA0752001B61EB0201001C91
:1003F00041F5801149084FEA300000195141324659
:100400002B4603B0BDE8F04F00F03FB90098012241
:1004100040000023D0EB020263EBE073009821461A
:100420004FEAE074B8EB000061EB0401E9E783F008
:1004300000435BE781F0004158E72DE9FE4F81EA78
:10044000030404F0004421F0004100944FF0000B3D
:1004500023F0004350EA01045ED052EA03045BD06B
:10046000C3F30A54C1F30A552C44A4F2F3340194A3
:10047000A0FB0254C1F3130141F48011C3F3130331
:1004800043F4801301FB024400FB034E840A970AE5
:1004900044EA815447EA8357A4FB076802958D0A12
:1004A00005FB07854FEA932C04FB0C542705029D9E
:1004B0004FEA065847EA1637B5EB08056EEB070C0E
:1004C000870E920E47EA811742EA8312A7FB0201C8
:1004D000B6EB0B0164EB00042B0D43EA0C335E1802
:1004E00044EB1C50DA465146E7FB0201C5F3130406
:1004F0004FEA0B3343EA14534FEA0432019C43EAB8
:100500000603A4F10C040294009CCDE900B400F0B1
:10051000CBF803B0BDE8F08F00200146F9E72DE9E4
:10052000F04D81EA030404F0004B21F0004514462D
:100530004FF0000A23F0004150EA050220D054EAAF
:1005400001021DD0C5F30A570246C5F31303C1F3D8
:100550001300C1F30A5640F4801543F48013A7EB4F
:100560000608101BD64608F2FD3873EB050002D3CF
:1005700008F1010801E092185B41B8F1000F03DABD
:1005800000200146BDE8F08D00204FF480110646A2
:1005900084460EE0171B73EB050705D3121B63EBB4
:1005A000050306434CEA010C49084FEA3000921853
:1005B0005B4150EA0107EDD152EA030012D082EA12
:1005C000040083EA0501084305D0101BAB4106D2A5
:1005D0000122002306E000224FF0004302E06FF00A
:1005E000010253101AEB06004CEB085110EB0A0005
:1005F00041EB0B01BDE8F04D00F047B830B50B46BC
:10060000014600202022012409E021FA02F59D4242
:1006100005D303FA02F5491B04FA02F52844151E16
:10062000A2F10102F1DC30BD202A04DB203A00FAFD
:1006300002F1002070479140C2F1200320FA03F339
:10064000194390407047202A04DB203A21FA02F037
:100650000021704721FA02F3D040C2F120029140FC
:10066000084319467047202A06DBCB17203A41FA87
:1006700002F043EAE07306E041FA02F3D040C2F12F
:100680002002914008431946704710B5141E73F1BB
:10069000000408DA401C41F1000192185B411A4342
:1006A00001D120F0010010BD2DE9F04D92469B468E
:1006B00011B1B1FA81F202E0B0FA80F22032904634
:1006C000FFF7B2FF04460F4640EA0A0041EA0B0179
:1006D00053465A46084313D0114653EA010019D035
:1006E000C8F140025046FFF7AEFF05460E465046A1
:1006F00059464246FFF798FF084305D0012004E021
:1007000020463946BDE8F08D0020054346EAE076F4
:100710002C4337430A986305E40AA0EB0800002243
:10072000FD0A44EA47540A3002D500200146E9E7B1
:10073000010510196941DDE9084500196941BDE865
:10074000F04DA2E7C1F30A52C1F3130140F2FF33A7
:1007500041F480119A4202DA00200146704740F2CB
:1007600033439A42A2F2334202DC5242FFF76BBF9C
:10077000FFF75ABF30B5041E71F1000404DB4FF0DF
:100780000044404264EB0101141E73F1000405DBD8
:100790001C464FF00043524263EB0403994208BFEA
:1007A000904230BD064C074D06E0E06840F0010382
:1007B00094E8070098471034AC42F6D3FFF710FDD9
:1007C000080501082805010830B58C1810F8012B20
:1007D00012F00F0301D110F8013B120906D110F8F5
:1007E000012B03E010F8015B01F8015B5B1EF9D1FE
:1007F00001E001F8013B521EFBD1A142E6D30020EB
:1008000030BD0000B0B508F0A7FA18B13F48CF21BD
:1008100000F0F4F80AF0C8FF0DF0CCF900F0EAFEA1
:1008200006F0D4FF04F039FD39A03EA13FA207F045
:100830003BFF4048006A804701F0A6F93EA009F05E
:1008400069F8404C206040A009F064F860604148BD
:100850000CF0C8FD40480CF095FD0028E06003D185
:100860002A48EE2100F0CAF83C480CF08BFD002825
:10087000206103D12548F02100F0C0F838480CF081
:1008800081FD0028606103D12048F22100F0B6F814
:10089000E068344D01210522A84720690121142276
:1008A000A847606901210122A8470CF037FD002804
:1008B000A06003D11548FA2100F0A0F800200AF04A
:1008C0001FFB294A29A12BA300200AF04DFC04F1AB
:1008D00018000AF0F7FA08F0A7F860B1D4E90601A9
:1008E0006422411A5143B1FBF0F12CA000F0A6F8AC
:1008F00036A000F0A3F8E06900B1B0BD034840F2B3
:100900000311BDE8B04000F079B800BF8FF90008CE
:100910006D61737465725F636F6E74726F6C6C651A
:100920007200000056302E302E32000056302E302D
:100930002E3100008800002075617274315F72787A
:10094000000000008002002075617274315F7478CD
:1009500000000000DDB2000895D20008BDD20008FA
:1009600085D2000889D4000801B600086D79636D4E
:100970006400000041646473203220696E7465670E
:100980006572206E756D6265727320616E64207091
:1009900072696E7473207468656D00001B5B316D45
:1009A0001B5B33336D5B5741524E5D201B5B306DDB
:1009B0003A6D656D6F72792075736564203A2564B0
:1009C0002870657263656E74290D0A000D000000C1
:1009D00080B5094802210522002380680CF0AAFC9A
:1009E00000F03EFF00F0F0F900F092FA00F060F83D
:1009F000BDE880400CF024BD8002002080B50A468E
:100A0000014602A000F01AF8FEE700BF1B5B316D43
:100A10001B5B33316D417373657274696F6E206651
:100A200061696C65643A2025732C206C696E6520C1
:100A3000256C750D0A1B5B306D00000083B078B526
:100A4000044605A8002C0EC026D0154D05AB4FF46A
:100A500080712246009328460DF0A2FE044604F45D
:100A60007F40B0F5807F22BF002085F8FF00FF2483
:100A70000D4D286850B90B4E317839B94FF480606C
:100A8000002109F0C7FF01212860317020B1A2B216
:100A900012B103490AF06BF8BDE8784003B0704723
:100AA00091290020E12C0020E42C0020FEE700002A
:100AB0002DE9FE4FDFF8FCB74FF6FF774FF0000A45
:100AC0000DF1070840F2015958460468002C00F067
:100AD000AC80206A0AF008F8384274D0207E0128E1
:100AE00021D0002856D1206A09F0FEFF05286AD3DC
:100AF000206A4146052200230AF011F89DF80700FC
:100B000053284AD1A08A9DF80810814245D1206A15
:100B100005210AF03CF8A4F8189041460522E06946
:100B200006F0EEFE4FE0A18A607E0731081A85B21A
:100B3000206A09F0D9FF80B2A84244D3617ED4E98B
:100B4000072011442A4609F0A3FFA18AE569C81DC0
:100B500055FA80F212F8012C452A2DD1C6B2681D33
:100B6000002208F0C3FEA91911F8021C88421ED108
:100B7000E878297940EA01260AF0B0FB801B6FF380
:100B8000DF30B0F57A7F21D9DBF81C000130CBF8DB
:100B90001C0028E084F818A015E0206A012109F063
:100BA000F6FFDBF820000130CBF820000BE0DBF88B
:100BB00018000130CBF81800DBF820000130CBF82A
:100BC0002000A4F818A004F13C007EE794F830005F
:100BD000FF2808D0A978081A012822DB062802DBA2
:100BE000606B01306063E569A87884F8300000F03C
:100BF0000BFEA04210D0E169A06A053105F04AF968
:100C00000028DED0E06A00F013FCA08ADBF80810B0
:100C10000844CBF80800D4E7A18A681D00F0FEF96B
:100C2000CFE710F1FA0FDBDADDE7BDE8FE8F00BF9A
:100C30002DE9F04FA3B0F84F0DF102044FF0FF3A49
:100C400004F105083D685CE0A88A6FF001010730F7
:100C500011FA80FB1AFA80F986B24CE0286A214624
:100C60003246002309F05BFF9DF8020053282AD189
:100C7000A88A9DF80310814225D114F8090045285F
:100C800029D14046002208F031FE14F80B2001461D
:100C9000286A914224D1314609F079FFBA6AA88ABC
:100CA000B96801320844BA62B8609DF8040085F85A
:100CB0003000E86A00F0BCFBA86BC0B1AA8A4146CC
:100CC00006F01EFE17E0286A012109F060FF386A6D
:100CD000013038620FE0286A012109F058FF0AE06C
:100CE000012109F054FFB8690130B86103E0A86A36
:100CF000414605F0CFF8286A09F0F6FEB042ADD2C1
:100D0000ED6B002DA0D123B0BDE8F08F18B111B16B
:100D1000406A05F0CDBA00207047000070B592B06F
:100D20002348D0E900C2D0E90234D0E90410CDE96B
:100D300010100CA8CDE90E34CDE90CC200F0F8F982
:100D40001C4E0028306003D11B48CB21FFF756FE14
:100D50001A4890E83E0040690B9006A83EC006A8DD
:100D600000F0E6F90028706003D11348D821FFF79E
:100D700045FE134890E82E00D0E90440CDE9044038
:100D800068468DE82E0000F0D3F90028B06003D14A
:100D90000948E521FFF732FE0A4800F041FA002831
:100DA000F06003D10448F021FFF728FE12B070BDB7
:100DB00038F10008AC020020DFF9000850F100080B
:100DC00068F1000834F200082DE9F84FDFF8E484F8
:100DD000224C4FF053094FF0450A08F1040004F18A
:100DE000050B36E07869594605F062FA78B3786900
:100DF000068984F80090667097F82000411C87F8F7
:100E00002010A0700AF06AFAE070000AF1B2002225
:100E10002071584608F06AFD073654FA86F101F849
:100E2000020C01F801ACF869456809F05DFE281A6A
:100E3000F6B2B0420BD3F8692146324609F097FE6C
:100E4000B04202BFD8F814000130C8F8140007F10E
:100E500028000768002FC5D1BDE8F88FB80800202A
:100E60002DE9F04F91B0ED4D6E680AF037FA0DF1B3
:100E70000409009009F1050A45E0F069B6F808B0E8
:100E800009F095FE022809D0F069446809F02CFEAB
:100E90000BF10701201ACFB2B84203D268690130C2
:100EA00068612FE0716A5FFA8BF421B150462246E7
:100EB00006F026FD04E07069514605F0F9F908B323
:100EC00005208DF805B0002250FA8BF853208DF8DC
:100ED000040096F82000411C86F820100099ADF817
:100EE00007108DF806005046214608F0FFFC09F86F
:100EF000080009EB080045213A4641704946F0696F
:100F000009F035FEB66A002EB7D111B0BDE8F08FFA
:100F10002DE9F84FDFF89C930820D9F80450811F81
:100F200001380329FBD3DFF888A0224C1AF800B05F
:100F300004F1070837E028890730C1B2092909D32D
:100F40000722002A05DB1AF80200013A8842F8D885
:100F500000E00820C1B2594528BF5846C6B218E083
:100F6000E8694146324609F093FD07466868214624
:100F7000A7712060287806F0DDFF28B1D9F80C00B1
:100F800050FA87F0C9F80C00D9F82C000130C9F8E4
:100F90002C00E86909F0A8FD20B1287806F0C8FF08
:100FA0000028DDD1AD6A002DC5D1BDE8F88F00BFA6
:100FB0005CF800087008002030B129B180B5806964
:100FC00004F068FFBDE8804070470000B0B50546FA
:100FD0005DB1B84806E02069294606F099FC28B1C1
:100FE00004F13C000468002CF5D100242046B0BD7B
:100FF000B0B5044664B1AF48043006E0E868214665
:1010000006F086FC28B105F128000568002DF5D111
:1010100000252846B0BD00BF30030020F8B50446C7
:101020000429C0F07F80002C00F07C803E4D687C5D
:10103000002800F077800AF051F93C4EA8600022A9
:1010400031690131316161780F2988BF01226B78E4
:10105000CB1AB3FA83F35B091A4302BF01EB4103D6
:1010600005EB8303D8622078013803285AD8DFE8DB
:1010700000F00213334F2878002853D10120B169C2
:101080002870B06801310130B161B060A8690028F2
:1010900048D0BDE8F8400047002A43D101EB4100A9
:1010A00005F12806012106EB8000077A01720AF09B
:1010B00015F9014660780023002F00EB400206EB93
:1010C000820253725160E17891722BD16A6A4AB3FD
:1010D0000121BDE8F84010470F2906D801EB410077
:1010E000012105EB800080F831102878012819D102
:1010F000E869B8B18047A8B104200BF023FB0220B7
:1011000028700AF0EBF8E860B0680130B060F8BD14
:101110000F2988BFF8BD01EB4100012105EB8000DC
:1011200080F83110F8BD00BFE82C002090030020AB
:10113000B0B586B0054635B1286920B1A98A013914
:1011400089B27F2903D90024204606B0B0BDFFF73D
:101150003DFF0446002CF7D1402006F0C1FB0446B9
:10116000002CF0D020460021402206F0CBFBFF20CF
:101170002946182284F83000204606F0C1FBA88AD0
:10118000382101EBC000002109F044FC0028206256
:101190003FD0A88A073006F0A3FB0028E06135D0D5
:1011A000A889C821ADF80610002808BF6420ADF852
:1011B0000400A87D00F007008DF80800A87B8DF8DA
:1011C0000900A86803902869CDE9040401A800F08B
:1011D000F5F80028E06219D0A98A286904F08EFE8B
:1011E000A0622869A98A05F080F80028606206D00C
:1011F000A06A20B12F480168E1630460A4E7286970
:1012000004F082FCE06AC06800F0CAF9206A09F0C4
:1012100033FC204606F023FB95E700BF3003002097
:10122000B0B5054635B1E86820B12989013989B2E0
:101230007F2902D900242046B0BDFFF7D9FE04461D
:10124000002CF8D12C2006F04BFB0446002CF1D0EA
:10125000204600212C2206F055FB20462946142268
:1012600006F04EFB2889382101EBC000002109F06F
:10127000D1FB0028E06118D02989E86804F03EFE1F
:10128000A061E868298905F030F80028606106D07F
:10129000A06920B107484168A1624460CBE7E868D3
:1012A00004F032FCE06909F0E7FB204606F0D7FACB
:1012B000C0E700BF3003002080B5212106F030FBDD
:1012C0002028B8BF80BDFEE7014800F083BD00BF05
:1012D00000020020014800F07DBD00BFA0050020F5
:1012E000014800F077BD00BFD02D002010B5104C94
:1012F00004F18002A4F57E712034C2640268436C5C
:101300008A4223F003013CBF40F60004C4F2020409
:10131000214481646FF0070151FA82F11422B1FB7C
:10132000F2F1012201F01F0102FA01F1016510BD85
:1013300000080240037907490122013B01F1400CFA
:1013400001EB830103F01F039A40C0E9151CC2653D
:10135000704700BF0009024010B5D0E913CE012448
:10136000CCF804E0D0F854C0BCF1000F1CBFD0E9A9
:1013700016CECCF804E0D0E910CE0EF01F0E04FA21
:101380000EF4CCF8044004686360806810280846B6
:1013900008BF1046A06008BF0A46E26010BD00000A
:1013A000904948680978002908BF0846704700BF7F
:1013B00000280EBF0020008CC00B704770B505469A
:1013C00095B3E86880B3874E317821B90121317037
:1013D00000217160718008F09DFA04462CBB282022
:1013E00006F07EFA0446FCB120460021282206F0D1
:1013F00089FA20462946142206F082FA09F06EFF87
:10140000C4E90500204630F8201F827841EA0241F5
:1014100041F4C0310180090C8170706860627460B1
:1014200070880130708000E00024204670BD00BF4D
:1014300010B5044624B1A069606109F04FFFA061B6
:1014400010BD00002DE9F84F2DED028B514C606866
:10145000002800F099802078002800F09580A0688E
:10146000E06009F03BFFA0609FED4B8A4FF0000A5F
:101470004FF4803B47F6FF76E16888422FBF401A61
:10148000C943084401300028444908BF01202061B5
:10149000201D894674E0A84638F8200F98F80210FD
:1014A00040EA014038F81E1C02466FF3DF326FF34A
:1014B000DF318A4216D9A969A268521A29888A425C
:1014C0001ED94FF6FF7320F40042994208BF40F442
:1014D0000042100CA8F8002088F8020085F823A02C
:1014E000104622E02369070CB04388F802701A44C2
:1014F0006FF3DF3210438A42A8F800000ED814E0E0
:1015000095F823101423013185F82310C9B22269FC
:10151000B3FBF2F28A4208D885F823A0010C40F40C
:10152000004088F80210A8F80000D5E905128A42A8
:1015300009D9511A07D000EE101AB8EE400A88EE09
:10154000000A85ED070A20F07F410A0C82EAD131BA
:10155000C90713D0A96839B12869884798F80200EB
:10156000B8F8001041EA00404A46A8F800000BEA2B
:10157000400110400843000C88F8020005F12400E7
:101580000568002D7FF487AFBDEC028B01B0BDE88C
:10159000F08F00BF6003002000007A44FFFFFE00D0
:1015A00070B504464FF0FF30C4B10E4D2978A9B193
:1015B0002A1D1646306890B1C068214606F0A8F989
:1015C00001463068002900F12402F2D1416A3160FD
:1015D00006F045F9688801386880002070BD4FF03A
:1015E000FF3070BD600300207047EFF3108072B6CB
:1015F000FEE7000070B586B023484FF0FF310224AB
:10160000012540F2FF76016000206946CDE9000027
:1016100021480294CDE90355059600F0BFFD08B1BD
:10162000FFF7E3FF1C486946CDE90154CDE90344C7
:10163000059600F0B3FD08B1FFF7D7FF0220694619
:10164000CDE9010003900320049040F2FF70059063
:10165000114800F0A3FD08B1FFF7C7FF0E4C20466C
:1016600001F0DAF8094D204601210022A847204662
:1016700008210022A84720464FF400710022A84705
:10168000FFF74CFB06B070BD00000020F11F000802
:10169000014800F07EBE00BF302E002070B50B4D1B
:1016A0006E4CE8682146FFF787FC2868084E04F175
:1016B0000901B047686804F10E01B047A86804F159
:1016C00013013246BDE87040104700BFAC02002055
:1016D0000D0D00084B481549027F032A03D0022A4A
:1016E00015D0012A1FD10B6802F0FE02022A23F452
:1016F00000730B600B6843F400630B600B6823F40A
:1017000000630B600B6843F400730B600BD10A6835
:1017100042F480520A600A6822F480520A600A6821
:1017200042F480620A600021017770470020024085
:10173000C0071F481EBF016841F004010160016835
:1017400041F48031016070474FF4FF6101EAC0004D
:1017500017490A6822F4FC7210430860086840F0D8
:1017600002000860086840F480300860704700BFDD
:1017700010B50F4C216841F0010121600260BFF3F8
:101780006F8F436010BD00BF094A136843F4802384
:101790001360EFF3108CEFF3108372B6402304C98B
:1017A000013B13F0FF0F04C0F9D18CF31088704790
:1017B0001420024070B5044601F0BCFA104E0546F4
:1017C000306810F4803F06D001F0B4FA401BA0420C
:1017D000F6D9032012E030684CF2FA31084006D006
:1017E00008494A6802434A603060012006E03068D8
:1017F00010F0010F1CBF012030600020C0B270BD8E
:1018000010200240A801002001480068704700BF76
:1018100090030020B0B5054600247DB1084801784A
:1018200061B1043006E0E06A294606F071F828B19B
:1018300004F134000468002CF5D100242046B0BD2A
:1018400074030020054A00EB80010328114401F1D4
:10185000090188BF00210846704700BF50080020DA
:1018600010B5634C2068606009F038FD20609FED82
:10187000620A9FED621A9FED622A9FED623A9FED28
:10188000624A9FED625A9FED626A9FED627A4FF065
:10189000000C6168401A574908BF01204860A1E068
:1018A000918A002900F09C80936CB1FBF0F1013328
:1018B0008B429364C0F09480D2ED070AD2ED081AEF
:1018C000C2F848C070EEE11AF4EEC01AF1EE10FA58
:1018D00006DBF4EEC11AF0EE612AF1EE10FA1ADD21
:1018E00071EE810AF0EE612AC0EE820AFDEEE00A96
:1018F000F8EEE00A40EEC22AF4EEC12AF1EE10FA48
:1019000002DD72EE832A06E0F4EEC02AF1EE10FA50
:10191000B8BF72EE822A11EE901AD2ED000AC2ED23
:10192000092A21F0004101EE901A62EEA00AF4EEBD
:10193000C41AC2ED0E0AF1EE10FA0CDDD2ED013A36
:10194000D2ED0F1A02F13C0342EEA31A11EE901AE7
:10195000C2ED0F1A04E0134653F83C1F01EE901A33
:10196000D2ED022AD2ED0D4AD2ED043A21F0004424
:1019700062EEA42A04EE904AF4EEE43AC2ED102A94
:10198000F1EE10FA07DA13EE904A01F0004121431C
:1019900001EE901A1960D2ED0B4AD2ED0C5A70EE9E
:1019A000A10AD2ED033A72EEA00A64EE851A45EE62
:1019B000861AC2ED0C1A41EE870A10EE901AC2ED9B
:1019C000110A21F0004300EE903AF4EEE03AF1EE15
:1019D00010FA05DA13EE903A01F000411943516410
:1019E00002F14C010A68002A7FF45AAF10BD00BF13
:1019F000800600203C010020DB0F49C0DB0F49407E
:101A0000DB0FC940DB0FC9C00AD7233CCDCC4C3F0C
:101A1000CDCC4C3ECDCC4C3DB0B50546CDB1A86942
:101A2000B8B107F08FFF0446A4B9502005F058FF65
:101A3000044674B120460021502205F063FF204681
:101A400029461C2205F05CFF03480168E16404603C
:101A500000E000242046B0BD3C01002040B139B177
:101A60000A6802624A68C261CA68C26289684163E0
:101A700070470000F8B52DED0A6B07F047FF90EDB9
:101A8000011A9FED380A384D00260020019621EEFC
:101A9000000A8DED000AA84700689FED348A354F93
:101AA0009FED339A6946039600EE100A386820EEDF
:101AB000080A30EE000A80EE090A8DED020AFFF7EF
:101AC000CDFF0020A8470168DFED2B0A07F10C00CD
:101AD00000EE101A04F0F4F89FED28AA97ED0C0A16
:101AE000002020EE0A0ABDEEC00A10EE101A04F023
:101AF00041FB07F00BFF90ED001A9FED210A214CEE
:101B0000012021EE000A666084ED000AA847006803
:101B10002146E66000EE100A786820EE080A30EEF2
:101B2000000A80EE090A84ED020AFFF797FF012000
:101B3000A84779680068484CD1ED110A00EE100AF8
:101B4000204604F0BDF894ED090A012020EE0A0AAF
:101B5000BDEEC00A10EE101A04F00CFBBDEC0A6BCF
:101B600001B0F0BD35FA8E3C45180008DB0F49C0C6
:101B700000007042D00200200000C84200007AC479
:101B800035FA8EBC0C26002070B52DED048B96B076
:101B90000FAC29491C222046FEF773FB2046FFF7B5
:101BA0003BFF264D0028286003D125482721FEF75A
:101BB00025FF08AC23491C222046FEF762FB204685
:101BC000FFF72AFF0028686003D11D483221FEF785
:101BD00015FF01AC1C491C222046FEF752FB204693
:101BE000FFF71AFF0028A86003D115483E21FEF731
:101BF00005FF164C9FED168AB6EE009A154E05F1BC
:101C00000C000021B0EE490A2246F0EE480AB04727
:101C1000114800212246B0EE490AF0EE480AB047CA
:101C20000E480F4A0021B0EE490AF0EE480AB047CC
:101C300016B0BDEC048B70BD80F10008D00200200E
:101C4000BFFA00089CF10008B8F10008B4F30008DE
:101C50009A99193EF95D000860070020B00700203E
:101C6000C4F3000890F82510022923D101680A68FE
:101C700022F00E020A60826C136823F480731360F2
:101C800001230A6822F001020A60D0E9101202F072
:101C90001F0203FA02F24A60D0E913124A60416D52
:101CA00031B10A6822F480720A60D0E916124A60E3
:101CB000002102E00421C1630121002280F82420D8
:101CC000012280F825200846704790F82510022947
:101CD0002ED101680A6822F00E020A600A6822F01A
:101CE00001020A60816C0A6822F480720A60D0E9FD
:101CF000101202F01F03012202FA03F34B60D0E935
:101D000013134B60416D31B10B6823F480730B608A
:101D1000D0E916134B60002180F8241080F82520AC
:101D2000826B6AB180B590470021BDE8804007E032
:101D30000421C163002180F82410012180F82510BE
:101D400008467047B0B504460120F4B32268142554
:101D5000116821F001011160774901F108039A42ED
:101D6000764B38BFA1F5806138BF03F5806313441B
:101D7000B3FBF5F39D00C4E91015002515601C2286
:101D800002EA8302904048602046FFF7AFFAA06C59
:101D90000560D4E91301416060680138042807D266
:101DA0002046FFF7C7FA606D0560D4E9160141606F
:101DB000E563C4E91555E565C4E90B55C4E90D555E
:101DC00084F8245084F8255000E001252846B0BD51
:101DD000C06B7047B0B5D0E910C4DCF800100268E1
:101DE00004F01F0E136813F0040F1EBF042404FA3E
:101DF0000EF414EA010519D19C0723D5022404FA34
:101E00000EF414EA01051DD0116811F0200F06D15F
:101E1000116821F00A011160012180F825100021CC
:101E2000CCF8044080F82410C16A23E0116811F056
:101E3000200F02BF116821F004011160CCF80440AA
:101E4000016B17E01B0719D5082303FA0EF319409D
:101E500008BFB0BD116821F00E011160012101FA27
:101E60000EF2CCF804200022C16380F8242080F810
:101E70002510416B11B1BDE8B0400847B0BD00006E
:101E8000F8B50446002C48D002202B49142304F155
:101E9000180784F82500206801F108029042274ABB
:101EA00038BFA1F5806138BF02F580620244B2FB01
:101EB000F3F29200C4E9101247F6F072016821EAC9
:101EC000020CD4E90223D4E9041EE0CF42EA0C025A
:101ED0001A43114341EA0E0129433143394301605A
:101EE0002046FFF703FAA068B0F5804F06BF002038
:101EF00060606068A16CC2B201380A600328D4E94E
:101F000013124A600BD82046FFF714FA606D0021C7
:101F10000160D4E91601416005E001200AE00020DB
:101F2000C4E91500E06500200121E06384F8240085
:101F300084F8251001B0F0BD00040240F8FBFDBF9D
:101F400010B5044694F82400012820D0012084F81C
:101F5000240094F82500012816D1022084F82500D9
:101F60000020E063D4F800C0DCF8000020F001009D
:101F7000CCF800002046FFF7EFF92068226B0168DB
:101F80003AB141F00E010AE0002084F8240002205A
:101F90001AE021F004010160016841F00A010160CA
:101FA000A16C0A6812F4803F1EBF0A6842F4807276
:101FB0000A60616D19B10A6842F480720A600168B2
:101FC00041F0010101600020C0B210BDB0B504466F
:101FD00000F0B0FE05460548611C406818BF044487
:101FE00000F0A8FE401BA042FAD3B0BD14000020B0
:101FF00090F85C30013BDBB2012B71D810B5006862
:1020000011F0070CD0F858E00EF0010300D01BB31C
:1020100011F0380F02D01EF002041DD011F4E07F41
:1020200002D01EF0040417D011F4F05F02D01EF0AD
:10203000080411D011F4604F02D01EF010040BD030
:1020400011F4403F02D01EF0200405D011F47C0FA3
:1020500006D01EF0400403D1C46D44F00104C465F1
:1020600013B1BCF1000F23D111F0380F18BF1EF0CF
:1020700002031DD111F4E07F18BF1EF0040317D135
:1020800011F4F05F18BF1EF0080311D111F4604F76
:1020900018BF1EF010030BD111F4403F18BF1EF003
:1020A000200305D111F47C0F18BF1EF0400303D0AC
:1020B000C36D43F00203C3650B06BDE8104042BF89
:1020C000D0F8DC301343C0F8DC30CB0542BFD0F889
:1020D000E0301A43C0F8E02000F15402002003E091
:1020E00000F160020120022113681943116070475A
:1020F0002DE9F04790F85C30022B43D1D0F800E096
:10210000DEF8C43013F4001F40D101F1100ADEF8EC
:10211000C4C0D1E90054D1E902389AE88006CE69FA
:10212000002C43EA070343EA050747F0804708BF4E
:1021300043EA85470B6A446DCCF3014C0CEBCC05AC
:1021400046EA036344F8357004EBC5048C4D43EA5A
:102150000A0343EA090343EA0843636004F10803FE
:10216000002402E016591E510434CE68AE5DB4421C
:10217000F8D3012101FA0CF1CEF8CC1081650020D2
:10218000BDE8F087016E41F0080102E0016E41F404
:10219000007101660120BDE8F08700BF80B590F8AE
:1021A0005C20013AD2B2012A13D80A68BAB101F10F
:1021B000040E9EE80450D1E90431406C43EA4E73AA
:1021C00041EA8C7140F8323000EBC20041600020DF
:1021D00080BD016E41F002010166012080BDD1E9A0
:1021E00001CED1E903234969006CD20642EA8E721E
:1021F00042EA0342114340F82C10002080BD704792
:10220000B0B504460D462068006C28030AD5204668
:1022100000F018FB2068816921F0010181612046EE
:1022200000F0FAFAA80342BF20684FF400310165BC
:10223000B0BD0068006CC0F306224A60C2B20A60FA
:10224000C0F3C0328A60C0F30740C8600020704706
:102250000068402900F1980208BF00F19002106860
:1022600000F00F0070470000F0B590F85C60022E9F
:102270001BD1D0F800C040291BD1DCF8906016F0CB
:102280000F0F77D0DCF8906016F0807F1ABFDCF873
:102290008060C6F340260026DCF89050C5F3012587
:1022A00005EB060C00F148061AE0016E41F008014A
:1022B00063E0DCF8986016F00F0F5BD0DCF89860F4
:1022C00016F0807F1ABFDCF88060C6F30026002677
:1022D000DCF89850C5F3012505EB060C00F14C061F
:1022E00036680CEBCC05264F56F8354014F0804488
:1022F000546056F835E0CEF38A4418BF2EF060449F
:10230000146056F8354004F00054946056F8354097
:1023100004F00044146106EBC504A688D661E68883
:1023200006F00F0EC2F80CE0656805F480155561E3
:10233000656805F400159561E57905F07F0515627E
:1023400065680834ED0F5562002504E0665D5E5552
:102350000135D2F80CE017F80E60B542F6D30068EC
:10236000402900F19C0208BF00F194020020C2F84D
:1023700000C0F0BD016E41F4807101660120F0BD26
:102380003CF800080068D0F8C40000F0070070476F
:1023900070472DE9F04F85B004462068016D426D0D
:1023A000D0F85090D0F854A0D0F850B0D0F8548065
:1023B00001EA0205016D0491416D0391016D0291E5
:1023C000416D0191416D026D01EA0207790604D564
:1023D000402101652046FFF7DBFF09EA0A0605F404
:1023E000E055F8050BD520684FF48073D0F8D8106D
:1023F000D0F8E02003652046114000F05EFA08EABC
:102400000B0806F007062DB1206829460565204611
:1024100000F055FA08F038052EB1206831460665FF
:10242000204600F099F92DB120682946056520461F
:1024300000F0BCF9B80506D520684FF400710165BD
:10244000204600F03DFA38060AD520688023D0F8EF
:10245000D410D0F8DC2003652046114000F02EFA9D
:10246000B80406D520684FF400510165204600F0FD
:1024700023FADDE9011000EA0105380406D52068D9
:102480004FF400410165204600F015FADDE9031024
:102490007A0400EA010005F4602107D522684FF4B0
:1024A00080431365226E42F08002226600F47105BB
:1024B00021B1206801652046FFF7A2FE3DB12068EA
:1024C0000565204650F8601F2943016001E004F1D2
:1024D0006000006828B1204605B0BDE8F04FFFF766
:1024E0008EBE05B0BDE8F08FF8B50446DCB194F8B7
:1024F0005C0028B9002084F85D00204600F0E0F878
:102500002068816921F01001816100F013FC05460B
:102510002068816911F0080F07D000F00BFC401B08
:102520000B28F5D312E00120C4E0816941F00101DC
:10253000816100F0FFFB05462068816911F0010F01
:102540000BD100F0F7FB401B0B28F5D3206E0321C5
:1025500040F0010020660120AAE0816941F00201FB
:1025600081617B49884204BF6268C1F80021227CF6
:10257000836943F04005012A08BF23F040058561C7
:10258000627C836923F48045012A08BF43F48045B7
:102590008561A27C836943F48055012A08BF23F436
:1025A000805585618369A26823F440731343836176
:1025B000836923F0A4038361036923F0100303619B
:1025C000E368ABB1012B03D1836943F004030EE050
:1025D0008569022B09D045F08005032B85610569CB
:1025E00045F01005056103D1856945F0200383613D
:1025F00004F114068E464FF07E476FF0FF0CB2F5E3
:10260000407F6ACE07EB43670CEB0525A6F1010678
:1026100047EA0507284D47EA060705EB014141EA6D
:102620000701C16110D104F124076FF00F0386CFB9
:10263000266B0CEB0727013A03EB061305EB014170
:102640003A431A431143C160E16BD0F8C0201143F3
:10265000C0F8C0100EF580412164D0F88020636B73
:1026600022F4F81242EA0342C0F88020134A62645E
:10267000D0F88030A76B23F0706343EA0763C0F89B
:10268000803002F58C70E06402F14000A06402F535
:10269000F870206502F50270606502F5387000225E
:1026A00000E004C18142FCD3002001212066A06526
:1026B00084F85C1001B0F0BD0000FFFF70A4004082
:1026C00010B598B0044613A81421FDF7F3FD02A835
:1026D0004421FDF7EFFD20681D49884235D14FF0B8
:1026E00080700E904FF48050029002A800F016FD0A
:1026F00008B1FEF77AFF1748C16841F00071C16068
:10270000C16801F0007101910199016841F0010176
:1027100001604FF4C051006800F001000190019881
:102720000220149013911590012013A916900920EE
:1027300017904FF0904000F019FA15200521002263
:1027400000F050FC152000F03FFC18B010BD00BF99
:10275000006400404C10024070B5C80700D170BD45
:10276000114C2B4EE51D0020002107F085FA0028B2
:1027700008BF70BD0020214607F08EFA0028F2D075
:102780002068314600E03C3109680029EBD00A7826
:10279000002AF8D14A688242F5D1086AA27929460E
:1027A00008F0E5F9DFE700BF1C260020F8B50807B0
:1027B00000D4F8BD154C164E164FE51D0020012122
:1027C00007F05AFA002808BFF8BD0020214607F09C
:1027D00063FA0028F2D02068314600E03C310968F5
:1027E0000029EBD00A78002AF8D14A688242F5D154
:1027F000086AA279294608F0BAF9396A38680131BD
:102800003962A17908443860D8E700BF6426002007
:10281000300300203803002090F85C1001290AD111
:10282000022180F85C1001688A6922F001028A6145
:102830000021016604E0016E41F0040101660121FE
:102840000846704790F85C1002290ED101688A6929
:1028500042F001028A614FF0FF328B6913F0010FE1
:1028600008D101320B2AF8D311E0016E41F00801C2
:10287000016613E08A6922F010028A614FF0FF328C
:102880008B6913F0080F0CD001320B2AF8D3016EBC
:1028900041F001010166032180F85C100121084626
:1028A00070478A6942F002028A61012180F85C1057
:1028B00000218165F3E770477047704770477047A4
:1028C000704700002DE9F843DFF8909105468846EF
:1028D00099F80000012801D102265BE0012089F867
:1028E00000004FF47A70FEF765FF0646002E4ED1C9
:1028F00000205B4CC9F804002168206800F4806067
:1029000011F4007F06D160B1206820F4806020605F
:10291000022009E038B1206820F4806020600320A4
:1029200002E0002000E0012089F81C00286801284E
:102930000CD16868FEF7FCFE4FF47A70FEF73AFFA0
:102940000646606920F0040060611EE04FF0FF3031
:10295000C8F80000A86807460FE03846FEF7F4FE06
:102960004FF47A70FEF726FF06466069002E20F4C9
:10297000FD70606107D1A8680137E96808448742A3
:10298000EBD3002601E0C8F80070FEF7A3FE00209C
:1029900089F80000304601B0BDE8F08304480168C2
:1029A00041F0004101600121006881EAD070704768
:1029B000142002402DE9F843DFF8A09006461F4698
:1029C00090460D4699F80000012801D1022440E00C
:1029D000012089F800004FF47A70FEF7EBFE044600
:1029E000A4BB00201E4CC9F80400216811F4806FBC
:1029F00004D0206820F4806020600220002E89F836
:102A00001C0011D0701E012808D828464146FEF748
:102A1000BBFE022E02D1134D26460DE04FF47A7014
:102A2000FEF7C8FE04460FE0284642463B462646CF
:102A3000FEF79EFE6FF001054FF47A70FEF7BAFEC6
:102A40000446706928407061FEF744FE002089F852
:102A50000000204601B0BDE8F08300BFA8010020BF
:102A600000200240FFFFFBFF0648C168B1F1FF3FB5
:102A7000C4BF002070470449016004490160C06878
:102A8000C00F70470820024023016745AB89EFCD96
:102A90002DE9F84F964A06274FF0000B4FF0000A39
:102AA0000025904200F138424FEAB22308BF0527C3
:102AB000052B38BF4FEAB227009731FA05F208BF5D
:102AC000BDE8F88F012202FA05F919EA010447D09E
:102AD000884BAA080BF00C0EA3F57E770F2357F84E
:102AE00022C0009E03FA0EF80CEA080306FA0EF65E
:102AF000B34217D17F4B1E463368A34333607368DC
:102B0000A34373607C4B9C46DCF80030A343CCF8B5
:102B10000030B368A343B36057F8223023EA0803B8
:102B200047F8223003220368754C0F2702FA0AF295
:102B3000134303600BF01C0307FA03F304EA550781
:102B400007443E6A26EA03033B62C3689343C360BB
:102B5000436823EA09034360836823EA0202826030
:102B60000BF1040B0AF1020A0135A6E72DE9FC4F2F
:102B70005F4A06274FF0000A4FF001084FF00309A3
:102B80004FF0000B0025904200F138424FEAB2238B
:102B900008BF0527052B38BF4FEAB22700970C68FE
:102BA00034FA05F308BFBDE8FC8F08FA05F314EA10
:102BB000030600F097804F6807F00304621E012AA5
:102BC00015D8D0F808C009FA0BF22CEA020CCA6832
:102BD00002FA0BF242EA0C028260C7F3001202FA18
:102BE00005FC42689A4342EA0C02426001E0032C71
:102BF0001DD0C36809FA0BF2022C23EA02028B688B
:102C000003FA0BF342EA0302C26010D13C4C0AF013
:102C10001C020F23934004EA550707443C6A24EA48
:102C200003030C6904FA02F21A433A624F6804681B
:102C300007F0030209FA0BF317F4403F02FA0BF214
:102C400024EA030342EA030202604BD02B4A0AF053
:102C50000C070F24BC4013461A6842F001021A60A8
:102C60001A68244B02F001029C46019225F00302EF
:102C7000019B6244234B9E4652F80E30A343009CB6
:102C800004FA07F73B4342F80E30DCF808204F689F
:102C900042EA060317F4801F08BF22EA0603164A19
:102CA00017F4001FCCF808301446226842EA0603E5
:102CB00008BF22EA060317F4003F2360DCF8042073
:102CC00042EA060308BF22EA060317F4803FCCF865
:102CD0000430DCF8002042EA060308BF22EA0603BB
:102CE000CCF800300AF1040A0BF1020B013556E76B
:102CF00000140048000401400C0401406010024030
:102D0000FCFFFF7F08FCFFFF0069084018BF01209F
:102D10007047426902EA0103914341EA034181613C
:102D2000704700F11803002A08BF00F1280319605A
:102D3000704700008A488068704700BF90F84120C3
:102D4000202A03D190F84020012A01D1022118E065
:102D5000242280F841200268136823F001031360E5
:102D6000136823F4805313601368194311601168CA
:102D700041F0010111600021202280F8401080F80C
:102D80004120C8B2704790F84120202A03D190F822
:102D90004020012A01D1022117E0242280F841209D
:102DA0000268136823F001031360136823F470634F
:102DB00043EA01211160116841F001011160002115
:102DC000202280F8401080F84120C8B270470000EF
:102DD00010B50446002C4BD094F8410028B90020CF
:102DE00084F84000204600F047F824204FF40443C4
:102DF00084F841002068016821F0010101606168E8
:102E000021F070610161816821F400418160D4E9A1
:102E10000212012A08BF4FF40043022A154A41EA70
:102E200003018160416821F4006308BF41F400633D
:102E3000436004F11003416811434160C16821F40B
:102E40000041C1600ECB114341EA0321C160D4E9C6
:102E5000071211430160016841F001010160002087
:102E60002021606484F84110206384F8420010BD82
:102E7000012010BD00800002B0B598B0044613A830
:102E80001421FDF717FA02A84421FDF713FA206870
:102E9000174988422AD1002480200994029002A870
:102EA00000F03CF908B1FEF7A0FB124D13A9286809
:102EB00040F001002860286800F0010001900198AE
:102EC000122014904FF4407013900420CDE9154463
:102ED00017904FF09040FFF749FEE86840F48000FB
:102EE000E860E86800F480000190019818B0B0BD77
:102EF000005800404C100240194841688268114453
:102F00008160704780B5032000F098F80F2000F032
:102F100007F808B1012080BD00F024F8002080BD32
:102F200070B50F4E04467068B0B14FF47A71B1FBC2
:102F3000F0F074490968B1FBF0F000F09DFF012545
:102F40000F2C0AD848B94FF0FF3021460022002547
:102F500000F048F8346000E00125284670BD00BF4D
:102F600014000020E0B50E480022816841F0010104
:102F70008160816801F0010101910199016841F0CE
:102F8000805101600F21006800F08050009000988F
:102F90006FF0010000F026F8BDE88C4000F0B6B8F4
:102FA0005810024000280CDB00F01F0101224009EC
:102FB00002FA01F1034A42F82010BFF34F8FBFF32A
:102FC0006F8F704780E100E0002808DB00F01F01F0
:102FD0000122400902FA01F1014A42F8201070472B
:102FE00000E100E0B0B500F00F031A4D124CB0F153
:102FF000FF3FA3F104032B4403F10C03C8BF0319E3
:103000002868C0F30220051DC41E80F00700072DAC
:103010004FF0010538BF0024042828BF042005FA1A
:1030200000F00138084005FA04F10F31A0401140CA
:10303000084300011870B0BD00E400E005494FF6F8
:10304000FF030A681A4060F30A220348104308602D
:10305000704700BF0CED00E00000FA0520B3BC494A
:10306000B0F5007F0A6845D1D1F8800040F4807047
:10307000C1F8800002F4C060B0F5806F3ED10868EE
:10308000012262F34A20322208601E480068504341
:103090001D4AB0FBF2F0C0434A6918B1013012F486
:1030A0008062F9D1486920E0A9480168D0F8802001
:1030B00001F4C06122F48072B1F5806FC0F8802005
:1030C0001CD10168012262F34A21322201600D49BC
:1030D000096851430C4AB1FBF2F1C943426919B185
:1030E000013112F48062F9D1406910F4806F05D08B
:1030F000032004E0022060F34A220A600020C0B2EC
:10310000704700BFA001002040420F000248016844
:1031100041F4804101607047087000402DE9FC4196
:1031200004468A4EA078000701D4002060E0F06CCD
:1031300010F0805F0BD1F06C4FF0010840F0805030
:10314000F064F06C00F080500190019801E04FF0C5
:1031500000087F4F386840F480703860FFF7EAFD60
:103160000546386810F4807F06D1FFF7E3FD401B69
:103170000228F6D9032034E0D6F8840010F4407019
:1031800026D0216C884211D0D6F88400D6F884105D
:1031900041F4803120F44070C6F88410D6F88410D1
:1031A00021F48031C6F88410C6F88400C0070FD01F
:1031B000FFF7C0FD054641F28837D6F8840010F0CD
:1031C000020F05D1FFF7B6FD401BB842F5D9D1E794
:1031D000D6F88400216C20F440700843C6F88400BF
:1031E0000020B8F1000F1EBFF16C21F08051F16496
:1031F000216811F0010F05D0F26F636822F003021D
:103200001A43F2678A0705D5F26FA36822F00C0211
:103210001A43F2674A0705D5F26FE36822F03002DD
:103220001A43F2670A0705D5F26F236922F0C0023C
:103230001A43F2678A0605D5F26F636922F4406289
:103240001A43F2674A0605D5F26FA36922F4405289
:103250001A43F2670A0605D5F26FE36922F4404289
:103260001A43F267CA0505D5F26F236A22F4403289
:103270001A43F2678A0505D5F26F636A22F4402289
:103280001A43F2674A050DD5F26FA36A22F4401281
:10329000B3F5801F42EA0302F26702BF326842F4CC
:1032A000801232600A050DD5F26FE36A22F4400203
:1032B000B3F5800F42EA0302F26702BF326842F4BC
:1032C00080123260CA040DD5F26F236B22F0407277
:1032D000B3F1807F42EA0302F26702BF326842F430
:1032E000801232608A040DD5F26F636B22F0406267
:1032F000B3F1006F42EA0302F26702BF326842F4A0
:10330000801232604A040DD5F26FA36B22F0406246
:10331000B3F1006F42EA0302F26702BF326842F47F
:103320008012326009040DD5F16FE26B21F040513B
:10333000B2F1805F41EA0201F16702BF316841F4F6
:1033400080313160C0B202B0BDE8F0810C100240A3
:10335000007000402DE9F04781468A46B9F1000F20
:1033600054D0764C4FF48050215801F00F01514554
:103370000AD2215821F00F0141EA0A0121502058B8
:1033800000F00F00504541D1D9F8000010F0010FB6
:1033900002D14FF000086BE0D9F80410032930D1B6
:1033A000216811F0007F31D0E168E268E368E768E6
:1033B0000226C7F3416701F0030106EB47072646E3
:1033C000894C032904BF41F60034C0F2B704C2F3AC
:1033D0000311C3F306220131B4FBF1F15143584A02
:1033E000B1FBF7F1914224D9B168344611F0F00FE6
:1033F00017D0800702D5D9F8080090B14FF0000827
:103400001AE02068022905D1800305D40120C0B24A
:10341000BDE8F0874005F9D500F0B4F84849884286
:10342000ECD9A06808214FF0800861F30710A06074
:1034300002E04FF000083446A068D9F8041020F0EC
:1034400003000843A060FFF775FC064641F2883789
:10345000A068D9F8041000F00C00B0EB810F05D083
:10346000FFF768FC801BB842F2D93CE0D9F80000B5
:10347000810706D4B8F1800F17D1A16821F0F001BF
:1034800012E0410742BFA16841F4E061A160010779
:1034900004D5A168072262F30D21A160A168D9F8C3
:1034A000082021F0F0011143A1604FF48057E15949
:1034B00001F00F0151451BD9E059254620F00F00BE
:1034C00040EA0A00E051FFF735FC064641F2883435
:1034D0002846C05900F00F00504506D0FFF72AFCDF
:1034E000801BA042F4D9032091E7D9F800002C46B4
:1034F000410706D5A168D9F80C2021F4E0611143F9
:10350000A160000707D5A068D9F8101020F460501A
:1035100040EAC100A06000F035F8A168094AC1F393
:103520000311515C01F01F01C840144908600648AE
:103530000068BDE8F047FFF7F3BC00BF0010024091
:1035400000B4C4041CF20008140000200B482549F4
:103550000B4A00680968C1F30221515C01F01F01A8
:10356000C840704705481F49054A00680968C1F30B
:10357000C221515C01F01F01C8407047A00100202A
:103580002CF200081749184A086800F00C000428BB
:10359000104608BF7047086800F00C031348082B5A
:1035A0001ED00B6803F00C030C2B1CBF00207047CF
:1035B0004B6803F00303032B08BF02464868C0F3BF
:1035C00003100130B2FBF0F04A68C2F306224968EA
:1035D00050430222C1F3416102EB4101B0FBF1F023
:1035E000704700BF081002400024F400001BB70021
:1035F0002DE9F8430446002C00F0CB812078C54E1D
:10360000C54FC007B1461FD1207880074DD4207820
:10361000000740F1A4806169D7F89000002900F00C
:103620008C8040F00100C7F89000FFF783FB05464F
:10363000D7F8900010F0020F40F09180FFF77AFB6E
:10364000401B0228F4D9D9E07968B86801F00C0170
:10365000082951D0032281F00C0122EA000008431E
:10366000B0FA80F0400947D16668B6F5803F0AD0CD
:10367000C846B6F5A02FD8F8000040F0DC8040F432
:103680008020C8F800004E46306840F4803030603A
:10369000FFF750FB0546306810F4003FB4D1FFF748
:1036A00049FB401B6428F6D9A8E07868B96800F0A7
:1036B0000C0004282AD001F0030180F00C0081F0F6
:1036C00002010843B0FA80F040091FD1E168306878
:1036D000002900F0958040F480703060FFF72AFBED
:1036E0000546306810F4806F40F09D80FFF722FBA4
:1036F000401B0228F5D981E0306810F4003F3FF408
:1037000083AF606800287FF47FAF42E1306810F437
:10371000806F03D0E068002800F03B8138682169A1
:1037200020F0FE4040EA01603860CC480068FFF7B6
:10373000F7FB002840F02D8169E720F00100C7F871
:103740009000FFF7F7FA0546D7F8900010F0020F47
:1037500005D0FFF7EFFA401B0228F5D94EE020789C
:10376000400740F1AA80786D10F0805F0BD1786D32
:103770004FF0010840F080507865786D00F080507F
:103780000090009801E04FF00008B54E484680597F
:1037900010F4807F12D14946885940F480708851D6
:1037A000FFF7C8FA05464846805910F4807F05D1D6
:1037B000FFF7C0FA401B0228F5D91FE0A668012ECA
:1037C00007D0D7F88C00052E53D140F00400C7F87D
:1037D0008C00D7F88C0040F00100C7F88C00FFF790
:1037E000A9FA054641F28836D7F88C0010F0020F8E
:1037F0005CD1FFF79FFA401BB042F5D90320C9E026
:1038000020F480703060FFF795FA0546484600685E
:1038100010F4806F3FF4FBAEFFF78CFA411B0320DE
:103820000229F3D9B6E03868216920F0FE4040EA69
:1038300001603860EBE620F48030C8F80000D8F86A
:10384000000020F48020C8F80000FFF773FA002E73
:10385000054646467FF41FAF4E46306810F4003FE1
:103860003FF4D2AEFFF766FA411B03206429F3D977
:1038700090E020F00100C7F88C00D7F88C0020F011
:103880000400C7F88C00FFF755FA0546002EA9D1B1
:1038900041F28836D7F88C0010F0020F06D0FFF7FF
:1038A00049FA411B0320B142F4D973E0B8F1000F8B
:1038B0001EBF786D20F080507865207880062DD569
:1038C000A169D7F8940091B140F00100C7F89400C5
:1038D000FFF730FA0546D7F8940010F0020F1DD11B
:1038E000FFF728FA411B03200229F4D952E020F007
:1038F0000100C7F89400FFF71DFA0546D7F89400B9
:1039000010F0020F0AD0FFF715FA411B032002291D
:10391000F4D93FE00010024004100240E669002E96
:1039200000F09A80786800F00C000C2836D1012E47
:103930002FD0B868216A00F003028A4229D1616A57
:103940006FF00F0202EB011100F0F0028A4220D169
:10395000A16A00F4FE42B2EB012F1AD1E16A00F035
:103960007842B2EBC16F14D1216B404A02EA015197
:1039700000F4C002A1F500118A420AD1616B4FF038
:103980007E4200F0C06002EA016101F17E4188429E
:1039900062D00120C0B201B0BDE8F083494608689A
:1039A00020F080700860FFF7C5F90546022E0BD1A4
:1039B0004846006810F0007F12D0FFF7BBF9411BAA
:1039C00003200229F4D9E5E74846006810F0007F9B
:1039D0003ED0FFF7AFF9411B03200229F4D9D9E704
:1039E00004F12006B8686FF00F054ECE05EB021209
:1039F0001D4D28400843216B10431C4A40EA032018
:103A000002EA01514FF07E42A1F500110843616BBB
:103A100040EAC66002EA016101F17E41084349467D
:103A2000B860086840F080700860B86840F0807046
:103A3000B860FFF77FF904464846006810F0007F41
:103A40000AD1FFF777F9011B03200229F4D9A1E776
:103A5000B86804490840B86000209BE714000020C3
:103A60000060FEFFFCFFEEFE0C809F010000E0FF07
:103A7000B0B5044634B1606A30B10020206104F171
:103A8000140007E00120B0BD6068B0F5827F03D06C
:103A900004F11C00002101600020A06294F85D1078
:103AA00021B984F85C00204600F054F8022084F824
:103AB0005D002068016821F040010160D4F80CE04D
:103AC000BEF5E06F05D94FF0000CBEF5706F03D165
:103AD00004E04FF4805C01D00023A362D4E90132FA
:103AE000D4E9041503F4827302F4044201F00201E4
:103AF0001A43114305F001021143A26902F4007355
:103B00001943E36903F038031943236A03F0800380
:103B10001943A36A03F400531943042301600EF40C
:103B2000706103EA124241EA0C01636B1143626A5D
:103B300002F01002114303F0080211434160C16911
:103B400021F40061C16100200121206684F85D102C
:103B5000B0BD000010B586B0044601A81421FCF7E2
:103B6000A9FB2068214988421CD0214988423AD1CA
:103B70002048416941F480514161416901F480511B
:103B800000910099016841F002010160382100684C
:103B900000F0020000900098022002900191039032
:103BA000032019E01348C16841F48041C160C16835
:103BB00001F4804100910099016841F00201016027
:103BC0004FF46041006800F002000090009802206D
:103BD00002900191039001200490052001A9059015
:103BE0000548FEF7C3FF06B010BD00BF0038004017
:103BF000003001404C100240000400482DE9F84319
:103C00001E4615460F460446FFF794F894F85D10DB
:103C10008146012940F08D800120002F00F00E81A7
:103C2000002D00F00B81002E00F0088194F85C005C
:103C3000012800F08A800120DDF8208084F85C00F3
:103C400094F85D0004281CBF052084F85D00002066
:103C50002066A4F846602564A4F84460A763A6879C
:103C6000C4E91300E6872068E1684268B1F5E06FB7
:103C700022F480552B4698BF42F48053012E88BF12
:103C80002B464360026812F0400F02BF026842F008
:103C900040020260B1F5E06F6368A6F10102B2FA7A
:103CA00082F2B3FA83F34FEA52124FEA531342EA15
:103CB00003024CD932B137F8021BC160A763E08F11
:103CC0000138E087012608F10105E08F20B9B4F83A
:103CD0004600002800F0B6802068816811F0020FCD
:103CE0000CD0E18F012E09D141B1A16B002631F832
:103CF000022BC260A163E18F0139E187816811F075
:103D0000010F0DD0B4F8461051B1C068216C0126E6
:103D100021F8020B2164B4F846000138A4F84600EB
:103D2000FFF708F8002DD0D0A0EB09004045CCD318
:103D30007DE06068B0F5827F07D1022004297DD143
:103D4000A16800293FF468AF78E0022076E09AB1DC
:103D5000E18F022908D337F8021BC160A7634FF631
:103D6000FE71E08F084406E039780173A06B0130E2
:103D7000A063E08F0138E087012708F101054FF6C5
:103D8000FE76E08F18B9B4F8460000285AD02068B3
:103D9000816811F0020F18D0E18F012F15D1A1B168
:103DA000A16BE28F022A06D331F8022BC260A16315
:103DB000E18F314407E009780173A16B206801317C
:103DC000A163E18F01390027E187816811F0010FBC
:103DD00025D0B4F8461011B3B4F84610022912D316
:103DE000C168226C22F8021BB4F846103144A4F8D2
:103DF00046102264B4F8461001290FD8416841F4F6
:103E0000805141600AE0007B216C0870206C013019
:103E10002064B4F846000138A4F846000127FEF7F4
:103E200089FF002DADD0A0EB09004045A9D30020AB
:103E300084F85C00012084F85D000320C0B201B06A
:103E4000BDE8F083204641464A4602F0A1F830B171
:103E5000002084F85C00202020660120EEE701208D
:103E600084F85D00002084F85C00206E002818BFF4
:103E7000012001B0BDE8F083411E0020B0EB116FBE
:103E80001CBF01207047044AF023516003490B70A6
:103E9000072190601160704710E000E023ED00E022
:103EA000704770477047000090F83C20012A01D10C
:103EB000022149E070B5012280F83C20234AD1E973
:103EC00000C3D1E902E403EA020524F47C542EF491
:103ED0007053234302F5C0542B4302F5006505EAF5
:103EE0000C052B430D692540194C2B434D692B4381
:103EF00002F5605502F5F0422B400D6B2A401A4343
:103F0000CB691A438B6904EA0343364C13430268B6
:103F1000A24202D0344CA24210D10E4CD1E9085C2E
:103F20000D4E2340D1E90A4106EA0456334325F0F9
:103F3000085633432CF0005633430B43002153649F
:103F400080F83C10BDE87040C8B27047FF87F0EFC2
:103F50000000FFEFFFFF0FDC0000F0DC7047704750
:103F60007047000090F83C300222012B37D070B52A
:103F700080F83D2001221B4D80F83C2002685468E7
:103F80009368AA4202D0184EB24203D14E6824F47C
:103F900070043443154EB2F1804F06EA04060C68F3
:103FA00046EA040656600DD0584CA2420AD0104C86
:103FB000A24207D00C4CA24204D00E4CA24201D027
:103FC000AA4204D1896823F080031943916000223A
:103FD000012180F83C2080F83D10BDE87040D0B24F
:103FE000704700BF00340140002C01408FFFFFFDEF
:103FF0000008004000400140704710B5044654B32B
:1040000094F83D0028B9002084F83C00204600F0D8
:1040100025F80220211D84F83D00206802F0FCF9FB
:10402000012084F8480084F83E0084F83F0084F8BA
:10403000400084F8410084F8420084F8430084F88A
:10404000440084F8450084F8460084F8470084F86A
:104050003D00002010BD012010BD0000FEB504464B
:10406000FC492068884230D02749884238D0FA4934
:10407000884218BFFEBD2648264D4FF03E0C102248
:1040800000234FF4807E4FF480662027016841F0C2
:10409000020101602049006800F0020002900298CD
:1040A000C5E9001CC5E902238020C5E9040E4FF4D0
:1040B0008050C5E9066728622846FDF7E1FE08B191
:1040C000FDF793FAA562AC62FEBD1148816841F428
:1040D00080218160806800F4802000900098FEBDFF
:1040E0000B480022016841F02001016005210068B1
:1040F00000F02000019001983720FEF773FF372071
:10410000BDE8FE40FEF760BF001400400004004020
:1041100058100240D02D00201C04024010B5044667
:10412000022094F83C20012A4BD084F83D00012065
:104130003F4B84F83C00206882681A4082600A681D
:104140008AB3102A2FD0202A2DD0302A2BD0402AF3
:1041500039D0502A43D0602A4DD0364B9A4222D0D3
:10416000B2F5805F26D0B2F5005F50D0B2F1101FDB
:1041700019D0314B9A4216D0304B9A4213D0304B63
:104180009A4210D0702A51D1D1E90123C9681A434B
:1041900042EA0121826822F47F42114381608168F2
:1041A00041F0770105E08168264B1940114341F049
:1041B000070181600020002184F83C10012184F86F
:1041C0003D10C0B210BD4B68CA68194602F0F0FA43
:1041D00020681C4A8168114041F04701E9E74B68BB
:1041E000CA68194602F0E4FA2068164A816811404C
:1041F00041F05701DDE74B68CA68194602F0E9FA59
:104200002068104A8168114041F06701D1E7D1E987
:104210000123C9681A4342EA0121826822F47F42DD
:1042200011438160816841F48041C2E70120C2E707
:104230008800CEFF70001000200010003000100039
:104240004000100088FFCFFF70470000F8B504461B
:104250002068C768066907EA0605A90714D56FF044
:104260000201016101212177806910F0030F03D061
:104270002046FFF7E9FF05E0204600F0F3F820466E
:1042800000F082F900202077680715D520686FF0CC
:104290000401016102212177806910F4407F03D07D
:1042A0002046FFF7D1FF05E0204600F0DBF820466E
:1042B00000F06AF900202077280715D520686FF0F4
:1042C0000801016104212177C06910F0030F03D0B8
:1042D0002046FFF7B9FF05E0204600F0C3F820466E
:1042E00000F052F900202077E80615D520686FF01D
:1042F0001001016108212177C06910F4407F03D0CB
:104300002046FFF7A1FF05E0204600F0ABF820466D
:1043100000F03AF900202077E80706D020686FF017
:1043200001010161204600F0B3F917F0800718BFC2
:1043300016F4025005D02068214901612046FFF79C
:10434000B0FD47B116F4807005D020681D490161A9
:104350002046FFF7A5FD680606D520686FF04001EE
:104360000161204600F095F9A80606D520686FF097
:10437000200101612046FFF795FDE80205D5206880
:10438000114901612046FFF7EAFDA80205D5206822
:104390000E4901612046FFF7E1FD680205D520685E
:1043A0000B4901612046FFF7DBFD280258BFF8BD2D
:1043B0002068084901612046BDE8F840FFF71CBEAF
:1043C0007FDFFFFFFFFEFFFFFFFFEFFFFFFFDFFFCE
:1043D000FFFFBFFFFFFF7FFF10B586B0044601A8B7
:1043E0001421FBF767FF20681A49884218D01A4940
:1043F00088422DD11948016841F001010160102166
:10440000006800F0010000900098022002900191E5
:1044100001210390CDE9041001A94FF0904015E06F
:104420000E48016841F00201016001A9006800F036
:10443000020000900098022002904FF4007001905A
:104440000020CDE90300012005900548FEF78EFB12
:1044500006B010BD00480140000400404C1002406E
:104460000004004870470000B0B504460D4694F8BB
:104470003C00012801D1022052E04FEAB2010120A4
:10448000052984F83C0048D8DFE801F0030B131B32
:1044900023332068294602F04DF8206850F8181F91
:1044A0001EE02068294602F079F8206850F8181FAD
:1044B00026E02068294602F0A9F8206850F81C1F61
:1044C0000EE02068294602F0DBF8206850F81C1F37
:1044D00016E02068294602F00DF9206850F8501FB8
:1044E00041F008010160016821F0040101602969BF
:1044F0000FE02068294602F02BF9206850F8501F81
:1045000041F400610160016821F480610160296962
:1045100009020268114301600020002184F83C1068
:10452000C0B2B0BD10B5044654B394F83D0028B9EC
:10453000002084F83C00204600F024F80220211DD1
:1045400084F83D00206801F067FF012084F84800EE
:1045500084F83E0084F83F0084F8400084F841006D
:1045600084F8420084F8430084F8440084F845004D
:1045700084F8460084F8470084F83D00002010BD10
:10458000012010BD704700000348002201688A63C3
:10459000042100F003B800BFFC2F002070B50D46C9
:1045A00004464FEAB506032E84BF012070BDDFE844
:1045B00006F0020910172068C16821F40071C1607B
:1045C000606A13E02068C16821F48061C160A06A5C
:1045D0000CE02068C16821F40061C160E06A05E078
:1045E0002068C16821F48051C160206BFDF76DFB2C
:1045F00020682946002201F08DFF206823490144EC
:104600004FEAB121072916D8012202FA01F111F06F
:10461000E50F10D0014641F2111351F8202F1A4234
:104620000BD10A6844F244431A4206D1426C22F488
:104630000042426401E000F120010A6841F21113D6
:104640001A4208D1096844F24442114203D1016878
:1046500021F001010160032E07D8DFE806F0020A0D
:104660000E12012084F83E000EE0012084F8430081
:104670000AE0012084F83F0006E0012084F84000B1
:1046800002E0012084F84100002070BD00D4FEBF8C
:104690007047704790F88410012901D1022112E07F
:1046A0002421C0F8881002681368116821F0010104
:1046B00023F000531160002141661360202280F82E
:1046C0008410C0F88820C8B2704770477047B0B5F2
:1046D000044694F88400012801D102201BE0242024
:1046E000C4F88800012084F8840020680568026806
:1046F00022F001020260826822F060621143816050
:10470000204602F091F8206820210560002084F8FE
:104710008400C4F88810C0B2B0BDB0B5044694F8A7
:104720008400012801D102201BE02420C4F8880065
:10473000012084F8840020680568026822F00102E4
:104740000260826822F0604211438160204602F0DC
:104750006BF8206820210560002084F88400C4F8EC
:104760008810C0B2B0BD70477047000010B5044655
:10477000206850E8000F216820F4907041E80002A2
:10478000002AF5D12448216851E8021F226801401F
:1047900042E80213002BF6D1E06E012809D120680F
:1047A00050E8000F216820F0100041E80002002AC4
:1047B000F5D12068816811F0400F01D11CE020681C
:1047C00050E8020F216820F0400041E80202002A70
:1047D000F5D1D4F8800078B100218163FDF742FA69
:1047E00050B1D4F88000FDF7F3FA202804D110204E
:1047F000C4F8900003200DE000200F22A4F85E0012
:1048000021680A628A6942F008028A612021C4F89C
:104810008C10E066C0B210BDFEFFFFEF10B504467D
:10482000206850E8000F216820F0C00041E8000235
:10483000002AF5D1206850E8020F216820F400001A
:1048400041E80202002AF5D12068816811F0800F4A
:1048500001D11AE0206850E8020F216820F08000A2
:1048600041E80202002AF5D1E06F70B100218163B6
:10487000FDF7F8F948B1E06FFDF7AAFA202804D156
:104880001020C4F8900003200FE00020A4F8560088
:10489000606EB0F1005F04D12068816941F01001C1
:1048A00081612020C4F888000020C0B210BDB0B5DE
:1048B00004462068D4F88820D4F88C508168212AD6
:1048C0001BD111F0800101D117E0206850E8020FE0
:1048D000216820F0800041E80202002AF5D1E06F53
:1048E00038B1FDF7BFF920B1E06FFDF771FA20286C
:1048F00021D0204602F05CF9206882680021222D38
:1049000022D112F0400201D11EE0206850E8020FCF
:10491000216820F0400041E80202002AF5D1D4F8D5
:10492000800068B1FDF79EF950B1D4F88000FDF722
:104930004FFA202804D110200321C4F8900003E08E
:10494000204602F009F90021C8B2B0BDB0B5044656
:10495000CCB124200025C4F888002068016821F02B
:1049600001010160056045608560204600F0EEF9B8
:10497000C4F89050C4F88850C4F88C50E56684F8A8
:104980008450256700E001252846B0BD0949DFF8BD
:1049900004C90022013101E028310132032A88BF15
:1049A00070475CF822308342F6D1002021F8010CD8
:1049B000704700BFBC2B002070B5044640F60F01C5
:1049C0002068C2690346D0F800E053F808CF0A42D5
:1049D00049D0C1490EEA0105C04901EA0C010D4365
:1049E0004BD0D50718BF1EF4807507D0012505628E
:1049F000D4F8905045F00105C4F890500CF0010532
:104A0000960708D53DB102260662D4F8906046F0BC
:104A10000406C4F89060560708D53DB10425056228
:104A2000D4F8905045F00205C4F8905015070BD506
:104A30000EF02005294307D008210162D4F8901018
:104A400041F00801C4F89010110565D51EF0806191
:104A500062D04FF400612546016255F8900F40F096
:104A6000200028605AE0910607D50EF020010CF0D6
:104A70008053194301D0616FE4E002EA0E01CB06D6
:104A8000E36E3AD5012B38D110210162816811F013
:104A9000400F40F08280B4F85E10B4F85C20B4F8A7
:104AA0005E30002B00F0E580511A89B209B9E0E0D0
:104AB000206850E8000F226820F4907042E800035C
:104AC000002BF5D18748226852E8022F2368024064
:104AD00043E80226002EF6D12020C4F88C000020E6
:104AE0006067E066206850E8000F226820F0100040
:104AF00042E80003002BF5D1DCE0D30240F19980BD
:104B00001CF4800300F095804FF480110162204670
:104B1000BDE87040FFF728BE04F190052868002822
:104B200000F0A78090060CD50EF020000CF080510C
:104B3000084306D0616F21B120468847206800F104
:104B400008032868196800F0280001F040010843B4
:104B500000F08280204601F0FFFF2068816811F09C
:104B6000400F01D173E0206850E8020F216820F067
:104B7000400041E80202002AF5D1D4F88000002864
:104B800065D057498163FDF7A0F8002871D0D4F8AB
:104B90008000816BBDE870400847D4F880100B6836
:104BA0005D68B4F85C20A9B200295CD091425AD269
:104BB000A4F85E50196811F0200F01D032E020688F
:104BC00050E8000F216820F4807041E80002002ABC
:104BD000F5D1206850E8020F216820F0010041E87B
:104BE0000202002AF5D1206850E8020F216820F067
:104BF000400041E80202002AF5D12020C4F88C00D0
:104C00000020E066206850E8000F216820F01000C6
:104C100041E80002002AF5D1D4F88000FDF722F81F
:104C2000B4F85C2002202067B4F85E00101A81B24C
:104C300042E013061ED50EF080030CF40006334349
:104C400018D0A16FA9B12046BDE8704008472046A2
:104C5000BDE87040FFF79ABE2046FFF797FE0020A0
:104C6000C4F8900070BD8A4203D1186810F0200F7C
:104C700020D170BD49060AD4100222D51EF0804012
:104C80001FD02046BDE87040FFF76DBD206850E89A
:104C9000000F216820F0400041E80002002AF5D111
:104CA0000020A0672020C4F888002046BDE870409E
:104CB00000F0D4BA022020672046BDE87040FFF71C
:104CC00004BDD001D5D5BEF1FF3FD2DC2046BDE802
:104CD0007040FFF7FBBC00BF200100040100001082
:104CE0000D6A0008FEFFFFEF10B50446D4B1D4F8FA
:104CF000880028B9002084F88400204600F044F899
:104D00002420C4F888002068016821F001010160B6
:104D1000A06A10B1204601F0B1FD204602F0E6F98C
:104D2000012801D1012010BD2068416821F4904183
:104D30004160816821F02A018160016841F0010130
:104D400001602046BDE8104001F002BE10B50446E7
:104D500049492068884218BF10BD0A48016821F4FB
:104D6000804101604648C021FDF792FEE06FFCF7EC
:104D7000E9FFD4F88000FCF7E5FF2520BDE81040EE
:104D8000FEF710B9601002402DE9F04397B00446D9
:104D900012A81421FBF78EFA01A84421FBF78AFA26
:104DA00020683549884263D100260120029601908F
:104DB00001A8FEF7B3F908B1FCF717FC2F484169C9
:104DC00041F480414161416901F4804100910099C1
:104DD000016841F00201016012A9006800F00200C0
:104DE0000090009802201390C02012900720CDE977
:104DF000146616902248FDF7B9FE234A214D19206A
:104E000010214FF080084FF48057C5E9002005F1CC
:104E10000800914680E842012846C5E90566EE6132
:104E20002F62FDF72DF808B1FCF7DFFB174E0020CD
:104E3000202109F114021823E567AC623762C6E944
:104E40000023C6E90200C6E90480C6E9060130462F
:104E5000FDF716F808B1FCF7C8FB25200521002254
:104E6000C4F88060B462FEF7BDF82520FEF7ACF808
:104E700017B0BDE8F08300BF003801404C1002407D
:104E8000000400480002002008000240A0050020A5
:104E90002DE9F8430446994617460E46D4F88C008F
:104EA000202827D10120002E5ED0002F5CD00020CA
:104EB0002221C4F89000C4F88C10E066FDF73AFF98
:104EC000A4F85C70A4F85E708046A068A0B1B0F150
:104ED000805F17D0B0F5805F1AD12169FF20374677
:104EE000002908BF40F2FF10A4F8600014BF00279B
:104EF0000E4611E0022037E021697F20002908BF1B
:104F0000FF2006E021693F20002908BF7F2000E044
:104F100000200027A4F8600085B218E02046202178
:104F200000224346CDF8009002F0A4FBC0B92068EF
:104F3000002E406A00EA050012BF06F8010B27F8B0
:104F4000020B0026B4F85E000138A4F85E00B4F845
:104F50005E000028E2D12020C4F88C00002003E08D
:104F60002020C4F88C000320C0B201B0BDE8F0835B
:104F7000D0F88C30202B1DD10123E1B1DAB110B56E
:104F80000023224CC3660368A3420FD05C6814F46C
:104F9000000F01D10AE0036853E8003FD0F800C0D9
:104FA00043F080634CE80034002CF4D1BDE810409D
:104FB00002F0BEB90223D8B2704700BFD0F88C30DF
:104FC000202B1FD10123F1B1EAB110B500230F4C02
:104FD000C3660368A3420FD05C6814F4000F01D1CC
:104FE0000AE0036853E8003FD0F800C043F0806354
:104FF0004CE80034002CF4D102F0E8F90023BDE8BD
:10500000104000E00223D8B2704700BF008000408B
:105010009F49DFF880C20022243101E028310132AB
:10502000032A88BF70475CF822308342F6D10868B3
:105030000130086011F8080C18B1002041F8140C78
:105040007047002001F8230C704700BF9049DFF83B
:1050500044C20022203101E028310132032A88BFF6
:1050600070475CF822308342F6D10868013008604E
:10507000704700BF2DE9F84304461D461746884691
:10508000D4F8880020281ED1B8F1000F4FF001009D
:1050900018BF002F18D04FF000092120C4F89090BD
:1050A000C4F88800FDF746FEA4F85470A4F85670C2
:1050B0000646A068B0F5805F0AD12769002F0CBFB3
:1050C000C14647461FE00220C0B201B0BDE8F083F0
:1050D000474618E02046802100223346009502F022
:1050E000C9FA20BB1FB117F8011B206805E039F889
:1050F000021B206800276FF35F218162B4F856001D
:105100000138A4F85600B4F856000028E2D1204631
:10511000402100223346009502F0ACFA20210028FD
:10512000C4F8881018BF032001B0BDE8F083202028
:10513000C4F888000320C7E7B0B504461346D4F886
:105140008800202824D109B303B300222120A4F829
:105150005630C4F89020A4F854302165C4F8880073
:10516000E06FC0B1DFF850C0DFF850E0144DC0E987
:105170000BECC0E90D5222682832FCF7E1FE50B179
:105180001020C4F890002020C4F88800012000E01E
:105190000220C0B2B0BD20684021016200E020685A
:1051A00050E8020F216840F0800041E80202002A26
:1051B000F5D10020EDE700BF516B0008116B00082E
:1051C000196A0008D0F88830202B1AD10123D9B3EE
:1051D000D2B30023A0F85620C0F89030A0F8542095
:1051E000016521218367C0F88810426E8168B2F1A1
:1051F000005F08D1B1F5805F01D1016951B1164955
:1052000009E0022320E0B1F5805F01D1016971B1AD
:105210000F490DE00F498167016851E8021F0268DC
:1052200041F4000142E80213002BF5D10BE00749DD
:105230008167016851E8001F026841F0800142E87F
:105240000013002BF5D10023D8B27047F574000885
:10525000B97500084B7500080B7600080C49DFF89B
:1052600034C000220C3101E028310132032A88BF0A
:1052700070475CF822308342F6D100220A6001F8C0
:105280000C2C0068016821F040010160704700BFEC
:10529000BC2B0020F8040108704780B5142003F0EF
:1052A00031FC06F0D3F8BDE8804005F079B880B550
:1052B00004F070FB04F07EFDBDE8804004F0AABF5E
:1052C00070B5044624B3E06810B3CB4E317821B9F1
:1052D00000217180716001213170FCF79BFA054655
:1052E000BDB9382002F0FCFA05468DB128460021F0
:1052F000382202F007FB05F120002146102202F0BF
:10530000FFFA70686863756070880130708000E033
:105310000025284670BD00BF2DE9F843B64D28781A
:10532000012840F066816F68002F00F0628132240E
:105330004FF000083DE0786AC8B3386AB8B33868FF
:105340007860387E00F0FD0160F34101397605F0A8
:10535000C5FF386079687A6A401A08BF0120786111
:10536000B4FBF0F69047397E002801F001020FD01F
:105370004AB9B87E421C8642BA769EBF87F81A8028
:1053800041F001003876F87E88B187F81B800EE086
:105390004AB1F87E421C8642FA769EBF87F81B808F
:1053A00001F0FE003876B87E08B187F81A80A86848
:1053B000476B002FAF60BED12F1D4FF0000838465D
:1053C00059E0266B002E41D0307EC0073ED0207EB3
:1053D00000F0030101291FD140F010002146207682
:1053E000307E40F010003076207F00F0F00040F07A
:1053F000090020770920226A9047207E40F0200093
:105400002076307E40F020003076C4F81080207E78
:1054100000F0BF00207619E000F04301032915D108
:10542000D4E90412A36AB3FBF2F24E1C9142266146
:105430000CD140F0400021462076207F00F0F000A3
:1054400040F00A0020770A20226A9047207E00F070
:10545000130112290DD100F0CF002076206B40B14E
:10546000017E01F0EF010176206B017E01F0DF018A
:105470000176A86834300468002CAC60A1D14FF0EC
:1054800000090FF278183C68002CAC6008BFBDE83A
:10549000F883606A002800F0A980226A002A00F0E0
:1054A000A580207E00F03001302900F09F80216B24
:1054B00019B1097EC90740F0998000F00103C0F3DB
:1054C0004001994217D1002946D0D4E90413A76AB4
:1054D0004E1C266146073FD4B7FBF3F399423BD9F4
:1054E00040F004002076207F00F0F00040F007003C
:1054F000207707202EE000F0FD01002B41EA430158
:10550000217627680AD14007C4F81090A76012D40A
:10551000207F00F0F000207700201BE0A068A36A45
:10552000391A207F994220F00F000FD240F001007D
:10553000207701200EE001F0FB002076207F00F0B4
:10554000F00040F008002077082003E040F006005B
:105550002077062021469047207E274610F0080F2E
:1055600010D117F81C1F01F00F02B2EB111F37D03A
:10557000062A35D140F0080084F81990207620687A
:10558000E0602DE02268E368A66A17F81C1FD31AB2
:10559000B3421AD90A0712D1607E01F0F001013836
:1055A000C2B2032888BF032218F8020000F00F00DF
:1055B000014321772146226A9047207E217F00F017
:1055C000F70084F8199020760AE001F00F00B0EBA4
:1055D000111F05D00028E26002D1607E01306076A4
:1055E00001F00F0040EA01103870AC6804F1340794
:1055F00049E7BDE8F88300BF7403002002030405F7
:10560000BFB51A481A4C0022016841F0040101603C
:10561000016801F0040103910399016841F002015E
:105620000160016801F0020102910299016841F0F4
:10563000010101600521006800F00100019001985E
:105640000B20A0470B4D0B20A8470C200521002262
:10565000A0470C20A84739200F210022A04739205D
:10566000294604B0BDE8B040084700BF48100240DA
:10567000E52F0008C92F000810B51348134A00236E
:1056800001214FF4407C4FF00C0E052483740382FB
:10569000C0E90021C0E902C34FF0040C0822C0E9B0
:1056A00005C1C0E9072EC0E90941C0E90B22C0E9E4
:1056B0000D33C363FCF718FF002814BFBDE810408A
:1056C00010BDFBF792BF00BF302E002000640040E9
:1056D000B0B50B480B4A0C4C0021A0470B4D0D4AAE
:1056E000002128600A48A04768600B480B4A002147
:1056F000A047A8600A480B4A0021A047E860B0BD57
:1057000089620008D4F3000815B70008F0010020F2
:105710001962000890F30008FD6100086CF30008AE
:105720008561000848F300082DE9F04786B04FF086
:1057300000083848394C00224FF48065CDF81480B9
:10574000016841F020010160016801F02001009131
:105750000099016841F040010160016801F04001D9
:1057600000910099016841F001010160016801F0B8
:10577000010100910099016841F0020101604FF4BC
:105780008061006800F0020000900098224800F557
:10579000A05682463046A04750464FF4885100221A
:1057A000A0474FF090404FF4004100224FF40049D1
:1057B000A047012701A81A4C80E8A00101AD30469E
:1057C000CDF810802946A0474FF090402946CDE9FA
:1057D00001780397A0474FF4805002972946019023
:1057E0005046CDE90377A0470320CDE90197039701
:1057F000294604904FF09040A0474FF480700297E4
:10580000294601905046CDE90388A04706B0BDE87F
:10581000F08700BF4C10024000040048232D000810
:105820006D2B000810B5134C1348144900220123B6
:10583000C4E9001004F110001421C4E90223FAF7AE
:1058400039FD2046FDF7C4FA08B1FBF7CEFE094842
:105850000021FDF773FA08B1FBF7C7FE05480021E8
:10586000FDF791FA002814BFBDE8104010BDFBF70A
:10587000BCBE00BF942E00209F6E91500058004087
:10588000B0B51248124A4FF4827C00234FF4706185
:105890004FF0010E4FF400742025C0E9002CC0E940
:1058A00002310721C0E9043EC0E90645C0E90833DA
:1058B000C0E90A31C0E90C33FEF7DAF8002814BF5A
:1058C000BDE8B040B0BDFBF790BE00BFE82E0020A1
:1058D0000030014010B51148114A4FF4827C00237A
:1058E0004FF4E0614FF4007E1824C0E9002CC0E9B9
:1058F000023107210822C0E90433C0E906E4C0E907
:105900000833C0E90A31C0E90C32FEF7B1F80028CB
:1059100014BFBDE8104010BDFBF767BE4C2F002040
:1059200000380040B0B594B00DAC1C212046FAF709
:10593000C1FC68463421FAF7BDFC1E481E4AA72167
:10594000002340F2E735C0E90021C0E90235C0E993
:1059500004338361FEF751FB08B1FBF746FE15489F
:10596000FEF7E0FD08B1FBF740FE602018210D9026
:10597000201DFAF79FFC0F48214600220025FEF764
:1059800073FD08B1FBF731FE6C4614212046FAF78F
:1059900091FC4FF4005006952146059005480C9562
:1059A000FEF782FA08B1FBF720FE0248FEF714FD6D
:1059B00014B0B0BDB02F00200048014010B58EB02B
:1059C000002468461C210D94CDE90B44CDE909441F
:1059D000CDE90744FAF76EFC1D481E4A01216A23EF
:1059E000C0E90021C0E9024304618461FEF705FBC0
:1059F00008B1FBF7FAFD4FF480500AA90A90144849
:105A0000FEF78CFB08B1FBF7F0FD1148FEF78AFDAD
:105A100008B1FBF7EAFD0E48002407A90994079492
:105A2000FEF7A0FA08B1FBF7E0FD6020019469469B
:105A300004220090064802940494FEF715FD08B174
:105A4000FBF7D3FD0248FEF7C7FC0EB010BD00BF48
:105A5000FC2F0020000400401FB50E4880220024C7
:105A600040F2E731A92382610B4A80E81C00C16043
:105A70000394CDE90144FEF7C0FA08B1FBF7B5FD88
:105A8000044801A903940194FEF76CFA08B1FBF7EE
:105A9000ACFD1FBD483000200014004010B5174C6D
:105AA00017494FF4E13000220C23C4E9001004F13F
:105AB00018001421C4E90222C4E90423FAF7FAFB0E
:105AC0002046FFF711F908B1FBF78FFD0B480021C5
:105AD000FEF723FE08B1FBF788FD08480021FEF71A
